:100000000C945C000C946E000C946E000C946E00CA
:100010000C946E000C946E000C946E000C946E00A8
:100020000C946E000C946E000C946E000C946E0098
:100030000C946E000C946E000C946E000C946E0088
:100040000C94CF000C946E000C946E000C946E0017
:100050000C946E000C946E000C946E000C946E0068
:100060000C946E000C946E00000000080002010069
:100070000003040700000000000000000102040863
:100080001020408001020408102001020408102002
:10009000040404040404040402020202020203032E
:1000A0000303030300000000250028002B000000CC
:1000B0000000240027002A0011241FBECFEFD8E043
:1000C000DEBFCDBF21E0A0E0B1E001C01D92AD30A8
:1000D000B207E1F70E94C0000C94E8010C94000004
:1000E00061E088E00E947D0161E08BE00E947D017B
:1000F00061E08AE00E947D0161E08BE00E947D0169
:1001000061E08CE00C947D0160E08CE00E94B9011C
:1001100061E08BE00E94B90160E08AE00E94B901D1
:1001200061E089E00E94B90160E088E00C94B901C7
:1001300061E08CE00E94B90160E08BE00E94B901AF
:1001400061E08AE00E94B90160E089E00E94B901A3
:1001500061E088E00E94B901809102019091030161
:100160000196909303018093020108950E948400F8
:100170000E949800909301018093000108950895D2
:100180000E9419010E94BF000E947000C0E0D0E0F0
:100190000E94B6002097E1F30E940000F9CF1F9261
:1001A0000F920FB60F9211242F933F938F939F932B
:1001B000AF93BF938091050190910601A091070133
:1001C000B09108013091040123E0230F2D3720F472
:1001D0000196A11DB11D05C026E8230F0296A11DA1
:1001E000B11D209304018093050190930601A09313
:1001F0000701B09308018091090190910A01A09133
:100200000B01B0910C010196A11DB11D8093090154
:1002100090930A01A0930B01B0930C01BF91AF9191
:100220009F918F913F912F910F900FBE0F901F9034
:100230001895789484B5826084BD84B5816084BD4E
:1002400085B5826085BD85B5816085BDEEE6F0E04F
:10025000808181608083E1E8F0E0108280818260AB
:100260008083808181608083E0E8F0E0808181602C
:100270008083E1EBF0E0808184608083E0EBF0E05C
:10028000808181608083EAE7F0E080818460808300
:1002900080818260808380818160808380818068AA
:1002A00080831092C1000895833081F028F481305A
:1002B00099F08230A1F008958730A9F08830B9F024
:1002C0008430D1F4809180008F7D03C080918000C4
:1002D0008F7780938000089584B58F7702C084B5AE
:1002E0008F7D84BD08958091B0008F7703C0809189
:1002F000B0008F7D8093B0000895CF93DF9390E09E
:10030000FC01E458FF4F2491FC01E057FF4F84911A
:10031000882361F190E0880F991FFC01E255FF4F9F
:10032000C591D491FC01EC55FF4FA591B491611199
:1003300009C09FB7F8948881209582238883EC9127
:100340002E230BC0623061F49FB7F8948881322F5E
:10035000309583238883EC912E2B2C939FBF06C06E
:100360008FB7F894E8812E2B28838FBFDF91CF9130
:1003700008951F93CF93DF93282F30E0F901E859B8
:10038000FF4F8491F901E458FF4FD491F901E057F0
:10039000FF4FC491CC23C1F0162F81110E9454014C
:1003A000EC2FF0E0EE0FFF1FEC55FF4FA591B4913D
:1003B0009FB7F894111104C08C91D095D82302C036
:1003C000EC91DE2BDC939FBFDF91CF911F910895BD
:0403D000F894FFCFCF
:00000001FF
