:100000000C9434000C9446000C9446000C9446006A
:100010000C9446000C9446000C9446000C94460048
:100020000C9446000C9446000C9446000C94480036
:100030000C9446000C9446000C9433010C9446003A
:100040000C9446000C9446000C9446000C94460018
:100050000C9446000C9446000C9446000C94460008
:100060000C9446000C94460011241FBECFEFD8E03C
:10007000DEBFCDBF21E0A0E0B1E001C01D92A930FC
:10008000B207E1F70E94F8010C9488050C94000077
:100090001F920F9200905F000F9211242F933F93B5
:1000A0004F935F936F937F938F939F93AF93BF9380
:1000B000EF93FF93CF93DF93CDB7DEB7F89485E24C
:1000C00090E025E230E0F901308120E22327FC01B5
:1000D000208380E00E94C702909301018093000179
:1000E0008091000190910101CC01A0E0B0E0BC0141
:1000F000CD010E947E04DC01CB0120E030E040E035
:100100005FE3BC01CD010E940C05DC01CB01BC0109
:10011000CD010E944F04DC01CB0190930301809339
:10012000020140910201509103019A01ADECBCEC37
:100130000E947905969587959695879596958795CA
:10014000880F991F9C01220F331F220F331F820F2C
:10015000931F9A01281B390BC901909305018093C5
:10016000040180910201909103019C01ADECBCEC73
:100170000E947905AC015695479556954795569539
:1001800047959A01ADECBCEC0E9479059695879550
:100190009695879596958795880F991F9C01220FB4
:1001A000331F220F331F820F931FFA01E81BF90B35
:1001B000CF019C0122953295307F3227207F322754
:1001C0008091040190910501822B932B909305015E
:1001D0008093040180910201909103019695879587
:1001E000969587959C01ABE7B4E10E947905AC0137
:1001F000569547959A01ADECBCEC0E947905969511
:1002000087959695879596958795880F991F9C0158
:10021000220F331F220F331F820F931F9A01281BB7
:10022000390BC901382F22278091040190910501D3
:10023000822B932B90930501809304010000DF91A2
:10024000CF91FF91EF91BF91AF919F918F917F914E
:100250006F915F914F913F912F910F9000925F00AE
:100260000F901F9018951F920F9200905F000F92B1
:1002700011242F933F934F938F939F93EF93FF936B
:10028000CF93DF931F92CDB7DEB7F89485E290E06D
:1002900025E230E0F901308120E12327FC012083B1
:1002A0008BE290E02BE230E0F90120812061FC013B
:1002B00020838BE290E02BE230E0F9012081206284
:1002C000FC0120838BE290E02BE230E0F9012081F9
:1002D0002064FC0120838BE290E02BE230E0F90106
:1002E0002081207FFC0120831982809106018823D0
:1002F00011F589818823F9F48BE290E02BE230E05C
:10030000F9014081209104013091050122273F70BD
:10031000232F3327242BFC0120838BE290E02BE258
:1003200030E0F90120812F7BFC01208381E0809364
:10033000060181E0898380910601813031F5898150
:10034000882319F58BE290E02BE230E0F90140813F
:100350002091040130910501207F332732952295A9
:100360002F7023273F702327242BFC0120838BE24F
:1003700090E02BE230E0F90120812F7DFC01208309
:1003800082E08093060181E08983809106018230BA
:10039000F1F489818823D9F48BE290E02BE230E0FC
:1003A000F901408120910401309105012F70242B27
:1003B000FC0120838BE290E02BE230E0F901208108
:1003C0002F7EFC0120831092060181E089830000CA
:1003D0000F90DF91CF91FF91EF919F918F914F916E
:1003E0003F912F910F9000925F000F901F901895F2
:1003F000CF93DF93CDB7DEB78AE290E0FC01808136
:100400008AE290E02FEFFC01208384E290E024E276
:1004100030E0F90120812B63FC01208384E290E02D
:1004200024E230E0F90120812F77FC01208387E26C
:1004300090E027E230E0F90120812663FC0120836F
:1004400087E290E027E230E0F9012081277FFC017C
:10045000208388E290E028E0FC01208310920601CE
:1004600084E00E9440020E948D020E94B502109218
:10047000070110920801789478940E94FD02FCCF45
:100480000F931F93CF93DF931F92CDB7DEB789836E
:1004900081E890E021E830E0F90120812D60FC0145
:1004A00020838FE690E02FE630E0F9012081226082
:1004B000FC01208308E810E08981882F90E0092E54
:1004C000000CAA0BBB0BBC01CD010E948004DC0117
:1004D000CB019C01AD0160E074E284EF95E40E94E1
:1004E000DD03DC01CB0120E030E040E85FE3BC014C
:1004F000CD010E947003DC01CB01BC01CD010E9443
:100500004F04DC01CB01F8019183808300000F9040
:10051000DF91CF911F910F910895CF93DF93CDB7C6
:10052000DEB784E490E024E430E0F9012081226029
:10053000FC01208385E490E025E430E0F90120818E
:100540002560FC01208387E490E020E4FC01208307
:100550008EE690E02EE630E0F90120812260FC0179
:1005600020830000DF91CF910895CF93DF93CDB723
:10057000DEB78CE790E020E4FC0120838AE790E07E
:1005800027E8FC0120830000DF91CF910895CF93ED
:10059000DF931F92CDB7DEB7898389818770898306
:1005A0008CE790E02CE730E0F9012081322F387F92
:1005B0002981232BFC0120838AE790E02AE730E0A1
:1005C000F90120812064FC0120838AE790E0FC018E
:1005D0008081882F90E08074992721E0892B09F48D
:1005E00020E0222309F0F1CF88E790E0FC01808130
:1005F00091810F90DF91CF910895CF93DF931F9258
:10060000CDB7DEB7198286E290E0FC018081887068
:10061000898391E08981882309F090E02091070186
:1006200081E0222309F080E08923882309F448C06F
:1006300081E08093070188E290E028E230E0F90150
:100640002081422F497F20910801222F30E0237022
:100650003327220F331F242BFC01208388E290E0F4
:1006600028E230E0F9012081422F4F7C20910801DF
:10067000222F30E02C703327220F331F220F331F1D
:10068000242BFC01208385E290E025E230E0F90193
:100690002081422F4D7F20910801222F30E02071D0
:1006A0003327359527953595279535952795242B0F
:1006B000FC012083809108018F5F809308010BC0AB
:1006C0008981883041F410920701809108018032BD
:1006D00011F41092080100000F90DF91CF9108955E
:1006E0005058BB27AA270E9488030C94D2040E946A
:1006F000C40438F00E94CB0420F039F49F3F19F471
:1007000026F40C94C1040EF4E095E7FB0C94BB04B2
:10071000E92F0E94E30458F3BA17620773078407AE
:10072000950720F079F4A6F50C9405050EF4E095F4
:100730000B2EBA2FA02D0B01B90190010C01CA019B
:10074000A0011124FF27591B99F0593F50F4503E46
:1007500068F11A16F040A22F232F342F4427585F38
:10076000F3CF469537952795A795F0405395C9F750
:100770007EF41F16BA0B620B730B840BBAF0915008
:10078000A1F0FF0FBB1F661F771F881FC2F70EC0A7
:10079000BA0F621F731F841F48F48795779567957A
:1007A000B795F7959E3F08F0B0CF9395880F08F066
:1007B0009927EE0F9795879508950E94F1030C9461
:1007C000D2040E94CB0458F00E94C40440F029F4E3
:1007D0005F3F29F00C94BB0451110C9406050C9456
:1007E000C1040E94E30468F39923B1F3552391F304
:1007F000951B550BBB27AA2762177307840738F090
:100800009F5F5F4F220F331F441FAA1FA9F335D0EC
:100810000E2E3AF0E0E832D091505040E695001CA0
:10082000CAF72BD0FE2F29D0660F771F881FBB1F5A
:10083000261737074807AB07B0E809F0BB0B802D38
:10084000BF01FF2793585F4F3AF09E3F510578F064
:100850000C94BB040C9406055F3FE4F3983ED4F37C
:10086000869577956795B795F7959F5FC9F7880F38
:10087000911D9695879597F90895E1E0660F771F8A
:10088000881FBB1F621773078407BA0720F0621B1B
:10089000730B840BBA0BEE1F88F7E09508950E9446
:1008A000EB0488F09F5798F0B92F9927B751B0F013
:1008B000E1F0660F771F881F991F1AF0BA95C9F7E4
:1008C00014C0B13091F00E940505B1E008950C9478
:1008D0000505672F782F8827B85F39F0B93FCCF32B
:1008E000869577956795B395D9F73EF49095809561
:1008F000709561957F4F8F4F9F4F0895E89409C081
:1009000097FB3EF490958095709561957F4F8F4F42
:100910009F4F9923A9F0F92F96E9BB279395F69558
:10092000879577956795B795F111F8CFFAF4BB0FD6
:1009300011F460FF1BC06F5F7F4F8F4F9F4F16C03A
:10094000882311F096E911C0772321F09EE8872FC4
:10095000762F05C0662371F096E8862F70E060E080
:100960002AF09A95660F771F881FDAF7880F9695F9
:10097000879597F9089597F99F6780E870E060E0A0
:1009800008959FEF80EC089500240A941616170628
:1009900018060906089500240A9412161306140670
:1009A00005060895092E0394000C11F4882352F0D3
:1009B000BB0F40F4BF2B11F460FF04C06F5F7F4F8B
:1009C0008F4F9F4F089557FD9058440F551F59F072
:1009D0005F3F71F04795880F97FB991F61F09F3F2C
:1009E00079F087950895121613061406551FF2CF55
:1009F0004695F1DF08C0161617061806991FF1CFA5
:100A000086957105610508940895E894BB276627CB
:100A10007727CB0197F908950E941F050C94D20403
:100A20000E94C40438F00E94CB0420F0952311F0FA
:100A30000C94BB040C94C10411240C9406050E9470
:100A4000E30470F3959FC1F3950F50E0551F629F2B
:100A5000F001729FBB27F00DB11D639FAA27F00D17
:100A6000B11DAA1F649F6627B00DA11D661F829F3E
:100A70002227B00DA11D621F739FB00DA11D621F23
:100A8000839FA00D611D221F749F3327A00D611D40
:100A9000231F849F600D211D822F762F6A2F112422
:100AA0009F5750409AF0F1F088234AF0EE0FFF1F55
:100AB000BB1F661F771F881F91505040A9F79E3FAC
:100AC000510580F00C94BB040C9406055F3FE4F3E1
:100AD000983ED4F3869577956795B795F795E79502
:100AE0009F5FC1F7FE2B880F911D9695879597F90B
:100AF0000895A29FB001B39FC001A39F700D811DF7
:100B00001124911DB29F700D811D1124911D089516
:040B1000F894FFCF87
:00000001FF
